{
  "contractName": "TodoList",
  "abi": [
    {
      "constant": true,
      "inputs": [],
      "name": "taskcount",
      "outputs": [
        {
          "name": "",
          "type": "uint256"
        }
      ],
      "payable": false,
      "stateMutability": "view",
      "type": "function",
      "signature": "0x8bd48089"
    },
    {
      "constant": true,
      "inputs": [
        {
          "name": "",
          "type": "uint256"
        }
      ],
      "name": "tasks",
      "outputs": [
        {
          "name": "id",
          "type": "uint256"
        },
        {
          "name": "content",
          "type": "string"
        },
        {
          "name": "complete",
          "type": "bool"
        }
      ],
      "payable": false,
      "stateMutability": "view",
      "type": "function",
      "signature": "0x8d977672"
    },
    {
      "inputs": [],
      "payable": false,
      "stateMutability": "nonpayable",
      "type": "constructor",
      "signature": "constructor"
    },
    {
      "constant": false,
      "inputs": [
        {
          "name": "_content",
          "type": "string"
        }
      ],
      "name": "createTodo",
      "outputs": [],
      "payable": false,
      "stateMutability": "nonpayable",
      "type": "function",
      "signature": "0xe34f1221"
    }
  ],
  "bytecode": "0x60806040526000805534801561001457600080fd5b50610089606060405190810160405280602881526020017f776520617265206372656174696e67206120626c6f636b636861696e2061707081526020017f6c69636174696f6e00000000000000000000000000000000000000000000000081525061008e640100000000026401000000009004565b610195565b60008054600190810180835560408051606081018252828152602080820187815282840187905293865284815291909420845181559151805192936100db939085019291909101906100fa565b50604091909101516002909101805460ff191691151591909117905550565b828054600181600116156101000203166002900490600052602060002090601f016020900481019282601f1061013b57805160ff1916838001178555610168565b82800160010185558215610168579182015b8281111561016857825182559160200191906001019061014d565b50610174929150610178565b5090565b61019291905b80821115610174576000815560010161017e565b90565b6103d3806101a46000396000f3fe6080604052600436106100565763ffffffff7c01000000000000000000000000000000000000000000000000000000006000350416638bd48089811461005b5780638d97767214610082578063e34f122114610136575b600080fd5b34801561006757600080fd5b506100706101eb565b60408051918252519081900360200190f35b34801561008e57600080fd5b506100ac600480360360208110156100a557600080fd5b50356101f1565b604051808481526020018060200183151515158152602001828103825284818151815260200191508051906020019080838360005b838110156100f95781810151838201526020016100e1565b50505050905090810190601f1680156101265780820380516001836020036101000a031916815260200191505b5094505050505060405180910390f35b34801561014257600080fd5b506101e96004803603602081101561015957600080fd5b81019060208101813564010000000081111561017457600080fd5b82018360208201111561018657600080fd5b803590602001918460018302840111640100000000831117156101a857600080fd5b91908080601f0160208091040260200160405190810160405280939291908181526020018383808284376000920191909152509295506102a0945050505050565b005b60005481565b600160208181526000928352604092839020805481840180548651600296821615610100026000190190911695909504601f8101859004850286018501909652858552909491939290919083018282801561028d5780601f106102625761010080835404028352916020019161028d565b820191906000526020600020905b81548152906001019060200180831161027057829003601f168201915b5050506002909301549192505060ff1683565b60008054600190810180835560408051606081018252828152602080820187815282840187905293865284815291909420845181559151805192936102ed9390850192919091019061030c565b50604091909101516002909101805460ff191691151591909117905550565b828054600181600116156101000203166002900490600052602060002090601f016020900481019282601f1061034d57805160ff191683800117855561037a565b8280016001018555821561037a579182015b8281111561037a57825182559160200191906001019061035f565b5061038692915061038a565b5090565b6103a491905b808211156103865760008155600101610390565b9056fea165627a7a723058206af3464ea336d43970186e291806a6ce3e423ec576ac10a0ae3751e7e67ae3ad0029",
  "source": "pragma solidity ^0.5.0;\r\n\r\ncontract TodoList {\r\n    //TODO public declaration of taskCount which can be used anywhere\r\n    uint public taskcount = 0;\r\n\r\n    //TODO: decalaring elements of different types for a Task\r\n    struct Task {\r\n        uint id;\r\n        string content;\r\n        bool complete;\r\n    }\r\n\r\n    constructor() public {\r\n        createTodo(\"we are creating a blockchain application\");\r\n    }\r\n\r\n    mapping(uint => Task) public tasks; \r\n\r\n    function createTodo(string memory _content) public {\r\n\r\n        //TODO: increamenting the taskcount \r\n        taskcount++;\r\n\r\n        tasks[taskcount] = Task(taskcount, _content, false);\r\n\r\n    }\r\n\r\n\r\n}",
  "sourcePath": "C:/Users/Kenneth/Desktop/Lynxcode/BlockApp/contracts/Todolist.sol",
  "compiler": {
    "name": "solc",
    "version": "0.5.0+commit.1d4f565a.Emscripten.clang"
  },
  "schemaVersion": "3.0.1",
  "updatedAt": "2021-01-28T05:05:17.131Z",
  "devdoc": {
    "methods": {}
  },
  "userdoc": {
    "methods": {}
  }
}